{
  "contractName": "SandeepDappToken",
  "abi": [
    {
      "constant": true,
      "inputs": [],
      "name": "name",
      "outputs": [
        {
          "name": "",
          "type": "string"
        }
      ],
      "payable": false,
      "stateMutability": "view",
      "type": "function"
    },
    {
      "constant": true,
      "inputs": [],
      "name": "totalSupply",
      "outputs": [
        {
          "name": "",
          "type": "uint256"
        }
      ],
      "payable": false,
      "stateMutability": "view",
      "type": "function"
    },
    {
      "constant": true,
      "inputs": [
        {
          "name": "",
          "type": "address"
        }
      ],
      "name": "balanceOf",
      "outputs": [
        {
          "name": "",
          "type": "uint256"
        }
      ],
      "payable": false,
      "stateMutability": "view",
      "type": "function"
    },
    {
      "inputs": [
        {
          "name": "_initialSupply",
          "type": "uint256"
        }
      ],
      "payable": false,
      "stateMutability": "nonpayable",
      "type": "constructor"
    }
  ],
  "bytecode": "0x60806040526040805190810160405280600481526020017f44617070000000000000000000000000000000000000000000000000000000008152506001908051906020019061004f9291906100d0565b5034801561005c57600080fd5b506040516020806103da8339810180604052810190808051906020019092919050505080600260003373ffffffffffffffffffffffffffffffffffffffff1673ffffffffffffffffffffffffffffffffffffffff168152602001908152602001600020819055508060008190555050610175565b828054600181600116156101000203166002900490600052602060002090601f016020900481019282601f1061011157805160ff191683800117855561013f565b8280016001018555821561013f579182015b8281111561013e578251825591602001919060010190610123565b5b50905061014c9190610150565b5090565b61017291905b8082111561016e576000816000905550600101610156565b5090565b90565b610256806101846000396000f300608060405260043610610057576000357c0100000000000000000000000000000000000000000000000000000000900463ffffffff16806306fdde031461005c57806318160ddd146100ec57806370a0823114610117575b600080fd5b34801561006857600080fd5b5061007161016e565b6040518080602001828103825283818151815260200191508051906020019080838360005b838110156100b1578082015181840152602081019050610096565b50505050905090810190601f1680156100de5780820380516001836020036101000a031916815260200191505b509250505060405180910390f35b3480156100f857600080fd5b5061010161020c565b6040518082815260200191505060405180910390f35b34801561012357600080fd5b50610158600480360381019080803573ffffffffffffffffffffffffffffffffffffffff169060200190929190505050610212565b6040518082815260200191505060405180910390f35b60018054600181600116156101000203166002900480601f0160208091040260200160405190810160405280929190818152602001828054600181600116156101000203166002900480156102045780601f106101d957610100808354040283529160200191610204565b820191906000526020600020905b8154815290600101906020018083116101e757829003601f168201915b505050505081565b60005481565b600260205280600052604060002060009150905054815600a165627a7a7230582020626c0c162d1e475c188e8a9388108bdeb3c0ed2093c3ae34abfe139b31cc1d0029",
  "source": "pragma solidity ^0.4.23;\n \ncontract SandeepDappToken{\n           // constructor\n\n           // set the v ariable\n\tuint256  public totalSupply;\n\n\tstring public name = 'Dapp';\n\n\tmapping(address => uint256) public balanceOf;\n \tfunction SandeepDappToken (uint256 _initialSupply )  public {\n\t\tbalanceOf[msg.sender] = _initialSupply;\n\t\t\ntotalSupply = _initialSupply;\n\n\n\n\t\t\t\t\t}\n\t\n\t\t\t\t\t\t\n\n\n\n}\n\n",
  "sourcePath": "/home/ubuntu/token_sale/contracts/SandeepDappToken.sol",
  "compiler": {
    "name": "solc",
    "version": "0.4.24+commit.e67f0147.Emscripten.clang"
  },
  "schemaVersion": "2.0.1",
  "updatedAt": "2018-11-18T09:23:44.794Z"
}