{
  "contractName": "SandeepDappToken",
  "abi": [
    {
      "constant": true,
      "inputs": [],
      "name": "totalSupply",
      "outputs": [
        {
          "name": "",
          "type": "uint256"
        }
      ],
      "payable": false,
      "stateMutability": "view",
      "type": "function"
    },
    {
      "inputs": [],
      "payable": false,
      "stateMutability": "nonpayable",
      "type": "constructor"
    }
  ],
  "bytecode": "0x608060405234801561001057600080fd5b50620186a0600081905550609e806100296000396000f300608060405260043610603f576000357c0100000000000000000000000000000000000000000000000000000000900463ffffffff16806318160ddd146044575b600080fd5b348015604f57600080fd5b506056606c565b6040518082815260200191505060405180910390f35b600054815600a165627a7a72305820821f7d97d772e08d2f36c1d8f702ea01df23b741a44e2b176f2722117f8e3cff0029",
  "source": "pragma solidity ^0.4.23;\n \ncontract SandeepDappToken{\n           // constructor\n\n           // set the v ariable\n\tuint256  public totalSupply;\n \tfunction SandeepDappToken () public {\n\t\ttotalSupply = 100000;\n\t\t\t\t\t}\n\t\n\t\t\t\t\t\t\n\n\n\n}\n\n",
  "sourcePath": "/home/ubuntu/token_sale/contracts/SandeepDappToken.sol",
  "compiler": {
    "name": "solc",
    "version": "0.4.24+commit.e67f0147.Emscripten.clang"
  },
  "schemaVersion": "2.0.1",
  "updatedAt": "2018-11-17T09:08:00.356Z"
}